:020000040800F2
:1000000020150020F12A00089D0100089F0100082A
:10001000A3010008A7010008AB01000800000000D0
:10002000000000000000000000000000AF01000818
:10003000B101000800000000B3010008B50100088C
:100040000B2B00080B2B00080B2B00080B2B0008B8
:100050000B2B00080B2B00080B2B00080B2B0008A8
:100060000B2B00080B2B00080B2B00080B2B000898
:100070000B2B00080B2B00080B2B00080B2B000888
:100080000B2B00080B2B00080B2B00080B2B000878
:100090000B2B00080B2B00080B2B00080B2B000868
:1000A0000B2B00080B2B00080B2B00080B2B000858
:1000B000134B00080B2B00080B2B00080B2B000820
:1000C0000B2B00080B2B00080B2B00080B2B000838
:1000D0000B2B00080B2B00080B2B00080B2B000828
:1000E0000B2B00080B2B00080B2B00080B2B000818
:1000F0000B2B00080B2B00080B2B00080B2B000808
:100100000B2B00080B2B00080B2B00080B2B0008F7
:100110000B2B00080B2B00080B2B00080B2B0008E7
:100120000B2B00080B2B00080B2B00080B2B0008D7
:100130000B2B00080B2B00080B2B00080B2B0008C7
:100140000B2B00080B2B00080B2B00080B2B0008B7
:100150000B2B00080B2B00080B2B00080B2B0008A7
:100160000B2B00080B2B00080B2B00080B2B000897
:100170000B2B00080B2B00080B2B00080B2B000887
:100180000B2B00080B2B0008DFF80CD004F004FF49
:10019000004800477303000820150020704700BF87
:1001A000FEE700BFFEE700BFFEE700BFFEE77047C7
:1001B0007047704710B500F07FF910BD00BFC3490C
:1001C000098801F080010029F9D0C1B2BF4A9180AD
:1001D000704710B54FF48051BD4800F0CFFD10BD01
:1001E00010B54FF48051BA4800F0C6FD10BD10B5EF
:1001F0000446204604F007FD10BD10B504F015FDBF
:1002000010BD00B585B0B349012002F0B7FF03A9C6
:10021000082002F07AFE03A9AFA004F0EFFEAD487B
:100220004079AC490979AB4AD278CDE900210290F6
:10023000A848837842780178ADA004F0DFFEA54895
:10024000407A0090A348037AC2798179B2A004F081
:10025000D5FEA048407C00909E48037CC27B817BF9
:10026000B2A004F0CBFE9B48407B00909948037BF2
:10027000C27A817AB2A004F0C1FE9648407D009017
:100280009448037DC27C817CB2A004F0B7FEB6A086
:1002900004F0B4FEDE208F49887162218D48C1715F
:1002A000AD210172EF214172DE208A4988736221FB
:1002B0008848C173AD210174FE214174FF20854936
:1002C0008872FF218348C1720173C02141730820E5
:1002D0008049887408217F48C174017541750120E7
:1002E0007C498875002002F049FF7A49012002F01C
:1002F00045FF03A978A004F081FE76484179007992
:10030000744AD278CDE9002002917248837842780D
:10031000017877A004F072FE6E48407A00906D4834
:10032000037AC27981797CA004F068FE6948407C38
:1003300000906848037CC27B817B7CA004F05EFE59
:100340006448407B00906348037BC27A817A7CA03A
:1003500004F054FE5F48407D00905E48037DC27CFF
:10036000817C7CA004F04AFE7FA004F047FE05B02B
:1003700000BD70B586B00026002005900025002441
:10038000804B0FCBCDE90323CDE9010104F0D6FA70
:1003900004F034FB04F092FB04F09CFD04F00AFC32
:1003A00004F0ECFB784800F020FE7748016877A065
:1003B00004F024FE744881687AA004F01FFE72489D
:1003C000C1687EA004F01AFEAFF2EB11AFF2FD108F
:1003D00002F0BDFBAFF2E911AFF2E11002F0DCFB7D
:1003E0004FF400613A4800F0C9FC002004F0BAFB69
:1003F00004E004F0B4FB642800DB00E0F9E700BF90
:100400004FF40061324800F0B7FC06E002213048AA
:1004100000F098FC012800D100E0F7E700BF01A937
:10042000012002F072FD401C20B96AA004F0E6FD34
:1004300000BFFEE700BF05A90F2002F066FD401CCB
:1004400010B96BA004F0DAFD9DF814000028F2D07A
:100450006EA004F0D3FDFFF7D4FE1EE040F6B832E4
:100460007449204604F036F8C0B2051E05DA2A4663
:10047000214671A004F0C2FD10E0611CC8B240F634
:10048000B8326C4904F026F8C0B2051E05DA2A46D7
:10049000214669A004F0B2FD00E0DFE700BF0020C4
:1004A00006B070BD01B56B490098086000BF69488F
:1004B00000680028FBD108BD6648006820B1654887
:1004C0000068401E6349086070470000001001404A
:1004D00000000240040000200D0A3D3D3D20257330
:1004E000204E455420434F4E46203D3D3D0D0A00D1
:1004F0004D41433A20253032583A253032583A257A
:100500003032583A253032583A253032583A253070
:1005100032580D0A000000005349503A2025642E3D
:1005200025642E25642E25640D0A00004741523AA9
:100530002025642E25642E25642E25640D0A0000D6
:100540005355423A2025642E25642E25642E2564B9
:100550000D0A0000444E533A2025642E25642E25B2
:10056000642E25640D0A00003D3D3D3D3D3D3D3D71
:100570003D3D3D3D3D3D3D3D3D3D3D3D3D3D0D0A0E
:1005800000000000A05400089C0000205359534371
:100590004C4B206672657175656E63793A202564EF
:1005A0000D0A000050434C4B312066726571756531
:1005B0006E63793A2025640D0A00000050434C4BCD
:1005C00032206672657175656E63793A2025640D17
:1005D0000A00000057495A4348495020496E69743F
:1005E00069616C697A6564206661696C2E0D0A0028
:1005F000556E6B6E6F776E20504859204C696E6B4C
:10060000207374617475732E0D0A000057353530F0
:10061000302044656D6F206F6E2053544D33324649
:10062000343031524520436F72746578204D300D5F
:100630000A000000AC00002025643A6C6F6F706205
:1006400061636B5F74637073206572726F723A25B9
:10065000640D0A000000002070B504460D462046D7
:1006600000F03FF870BD10B5044600F045F810BD2D
:1006700001464FF0FF30704710B50446204600F0A9
:1006800030F810BD00BFFEE72148006840F00100CF
:100690001F4908601E481430006840F010001C49D3
:1006A000143108601B48406A20F47F611948416298
:1006B000406A40F4EE6117484162006820F470100F
:1006C000144908600846006840F420100860D020F3
:1006D0001149088100208882088242F20C0088813A
:1006E000704700BF0C49098801F080010029F9D04A
:1006F000C1B2094A918070470748008800F0200085
:1007000010B10548808870474FF0FF30FBE70000CC
:1007100030380240000002400010014032490143DD
:10072000324A1160704770B5002100230F22C4784F
:100730001CB32E4C246804F4E064C4F5E064C4F3F4
:100740000721C1F10404E3B20A4144789C40E1B2BC
:100750008478144021430C07210E254C05786155FF
:10076000047804F01F050124AC4005786D11AD003C
:1007700005F1E025C5F8004109E0047804F01F0503
:100780000124AC401B4D0678761145F8264070BD1B
:10079000194A0A400243154B1B1F1A60704739B1B2
:1007A000124A121D12680243104B1B1D1A6006E00C
:1007B0000E4A121D126882430C4B1B1D1A607047B3
:1007C000042808D14FF0E021096941F004014FF0FD
:1007D000E022116107E04FF0E021096921F00401F6
:1007E0004FF0E022116170470000FA050CED00E0C7
:1007F00000E400E080E100E080FFFF1F016821F0DD
:10080000010101600021016041608160C1600161FE
:1008100021214161DB49884204D13D21D94A103A66
:1008200091608CE0D7491831884205D14FF474614A
:10083000D44A103A916082E0D2493031884205D1E1
:100840004FF47411CF4A103A916078E0CD494831A5
:10085000884205D14FF07461CA4A103A91606EE047
:10086000C8496031884204D1C749C64A103AD160AC
:1008700065E0C4497831884204D1C449C14A103A7C
:10088000D1605CE0BF499031884204D1C049BD4A83
:10089000103AD16053E0BB49A831884205D14FF0EE
:1008A0003D51B84A103AD16049E0BA49884204D172
:1008B0003D21B84A083A116041E0B64918318842F2
:1008C00005D14FF47461B34A083A116037E0B14979
:1008D0003031884205D14FF47411AE4A083A1160A4
:1008E0002DE0AC494831884205D14FF07461A94AE6
:1008F000083A116023E0A7496031884204D1A24937
:10090000A44A121F11601AE0A2497831884204D12A
:100910009E49A04A121F116011E09E499031884201
:1009200004D19B499B4A121F116008E09949A831E4
:10093000884204D14FF03D51964A121F1160704712
:1009400010B500220268944B1A40CC680B68234310
:100950004C6923438C692343CC6923430C6A2343AA
:100960004C6A23438C6A23434C6B23438C6B234395
:100970001A430260426922F00702D1E90B34234393
:100980001A4342610B6943604B6883608B68C360A4
:1009900010BD0021016041608160C1600161416161
:1009A0008161C161016241628162C162016341632F
:1009B0008163704721B1026842F00102026003E0E6
:1009C000026822F001020260704721B1026842F41D
:1009D0000042026003E0026822F4004202607047B5
:1009E00021B1026842F02002026003E0026822F0B6
:1009F000200202607047416070470146486880B23B
:100A0000704722B1036843F40023036003E00368E6
:100A100023F4002303600161704721B1026842F4AE
:100A20008022026003E0026822F4802202607047A4
:100A30000AB1016100E0C1607047014600200A6808
:100A400002F400220AB1012000E0002070470146B4
:100A500000200A6802F001020AB1012000E0002033
:100A60007047014600204A6902F03800704730B5EF
:100A700003460A4600200024464DAB4202D24149BB
:100A8000103901E04349103902F000550DB14C68AE
:100A900000E00C68414D2C4004EA02050DB1012034
:100AA00000E0002030BD02463A4B9A4202D235485F
:100AB000103801E03748103801F000531BB1374BB4
:100AC0000B40C36002E0354B0B408360704710B5AC
:100AD00001F080034BB122B1436943F080034361CD
:100AE00003E0436923F08003436180290BD02AB1DE
:100AF000036801F01E042343036004E0036801F06F
:100B00001E04A343036010BD70B5024600200024FC
:100B10000025204EB24202D21A4B103B01E01D4B81
:100B2000103B1F4E0E4036B11E2606EAD124166831
:100B300006EA040502E0566906F0800501F0005659
:100B40000EB15C6800E01C68144E344004EA0106F3
:100B500016B10DB1012000E0002070BD02460D4B22
:100B60009A4202D20748103801E00A48103801F0D2
:100B700000531BB1094B0B40C36002E0074B0B4015
:100B800083607047106002403D000020400F00204D
:100B900000003D20106402403F801CF07D0F7D0F5F
:100BA0003C0F3C0F10B504468C48844208D101210B
:100BB000084600F007FB0021012000F003FB5EE087
:100BC0008748844208D10121022000F0FBFA00216D
:100BD000022000F0F7FA52E08248844208D1012155
:100BE000042000F0EFFA0021042000F0EBFA46E0C8
:100BF0007D48844208D10121082000F0E3FA002159
:100C0000082000F0DFFA3AE07848844208D1012158
:100C1000102000F0D7FA0021102000F0D3FA2EE0C7
:100C20007348844208D10121202000F0CBFA002132
:100C3000202000F0C7FA22E06E48844208D101214A
:100C4000402000F0BFFA0021402000F0BBFA16E07F
:100C50006948844208D10121802000F0B3FA0021C4
:100C6000802000F0AFFA0AE06448844207D10121F5
:100C7000801500F0A7FA0021A01500F0A3FA10BD1E
:100C8000F0B50A4600210023002400BF3DE0012505
:100C900005FA01F3156805EA03049C4234D105689E
:100CA0004F000326BE40B543056015794E00B540A0
:100CB0000668354305601579012D02D01579022D9E
:100CC00016D185684F000326BE40B543856055792F
:100CD0004E00B540866835438560456801268E40E4
:100CE000B5434560456896798E40B6B23543456058
:100CF000C5684F000326BE40B543C560D5794E0098
:100D0000B540C6683543C560491C1029BFD3F0BD46
:100D10004FF6FF7101600021017141718171C17154
:100D2000704708B54FF480320092009A0A4300924F
:100D3000009AC261C161009AC261C2690092C2692F
:100D4000009208BD0246002013690B400BB1012040
:100D500000E0002070470146086980B270470246F3
:100D6000002053690B400BB1012000E000207047C8
:100D70000146486980B270470183704741837047DC
:100D80000AB1018300E041837047416170474269C5
:100D90004A4042617047F0B5002300244D07ED0E34
:100DA00002FA05F3CE1000F1200555F826504E0743
:100DB000F70E0F26BE40B543CF1000F1200646F8CF
:100DC0002750CE1000F1200555F8265045EA0304BF
:100DD000CE1000F1200545F82640F0BD000002408D
:100DE0000004024000080240000C024000100240D3
:100DF0000014024000180240001C02400020024083
:100E0000F948006840F00100F74908600020F64901
:100E100008310860F4480068F4490840F249086065
:100E2000F348091D0860F348EF4984310860EE4833
:100E3000006820F48020EC4908600020EA490C3169
:100E4000086070470021E84A921C11701146087032
:100E5000704710B501460022002300204A11012AE4
:100E600002D1E14C236808E0022A03D1DE4C703441
:100E7000236802E0DC4C7434236801F01F02012473
:100E800094401C400CB1012000E0002010BD38B59A
:100E9000002000900024002500BF3120FFF7D9FF7B
:100EA00005460098401C00900098B0F5A06F01D056
:100EB000002DF2D03120FFF7CCFF08B1012400E073
:100EC0000024204638BD01460020C74A106820F0A3
:100ED000F80040EAC10010607047C74908607047D9
:100EE0000021C14A703211701170012802D004280B
:100EF0000AD104E00121BC4A7032117005E00521DD
:100F0000B94A7032117000E000BF00BF7047BB49A2
:100F10000860704770B5049C41EA82150126C6EB53
:100F2000530645EA0645054345EA0465AE4E361DBF
:100F3000356070BDB04908667047820142EA0172AF
:100F4000A94B84331A607047AB4988667047AA4939
:100F5000C864704702460020A34B0833186820F08D
:100F6000EC6042EA010318439F4B08331860704756
:100F7000024600209C4B0833186820F0784042EA73
:100F800001031843984B083318607047014600204E
:100F9000954A0832106820F003000843106070473B
:100FA00091480830006800F00C00704701460020AE
:100FB0008D4A0832106820F0F00008431060704736
:100FC00001460020884A0832106820F4E0500843A7
:100FD0001060704701460020834A0832106820F4F0
:100FE000604040EAC10010607047F0B50021002267
:100FF00000240225002602237B4F08373F6807F0B4
:101000000C0121B1042905D0082937D105E07C4F16
:10101000076036E07B4F076033E0734F3F1D3F684A
:10102000C7F38056704F3F1D3F6807F03F036EB116
:10103000744FB7FBF3F7DFF8B0C10CF1040CDCF828
:1010400000C0CCF3881C07FB0CF40CE06C4FB7FB22
:10105000F3F7DFF894C10CF1040CDCF800C0CCF31A
:10106000881C07FB0CF4604F3F1D3F68C7F3014726
:101070007F1C7D00B4FBF5F7076002E0604F07605E
:1010800000BF00BF584F08373F6807F0F00109095B
:101090005D4F7A5C0768D7404760534F08373F6819
:1010A00007F4E051890A584F7A5C4768D740876057
:1010B0004D4F08373F6807F46041490B524F7A5C47
:1010C0004768D740C760F0BD002100F44072B2F518
:1010D000407F0AD1444A0832116821F4F8114B4A82
:1010E00002401143404A083211603F4A7032126890
:1010F000C0F30B031A433C4B70331A6070473F49EF
:101100004439086070473D4940390860704740499C
:10111000086070473F490860704739B1324A303241
:1011200012680243304B30331A6006E02E4A3032E8
:10113000126882432C4B30331A60704739B12A4A07
:10114000343212680243284B34331A6006E0264AD0
:10115000343212688243244B34331A60704739B1F9
:10116000214A3832126802431F4B38331A6006E0B6
:101170001D4A3832126882431B4B38331A6070475D
:1011800039B1194A403212680243174B40331A6092
:1011900006E0154A403212688243134B40331A600E
:1011A000704739B1104A4432126802430E4B44333F
:1011B0001A6006E00C4A4432126882430A4B4433F8
:1011C0001A60704739B1084A103212680243064B60
:1011D00010331A6006E0044A103212688243024B50
:1011E00010331A607047000000380240FFFFF6FA23
:1011F000103000240030002000004742800E47429B
:101200000024F40040787D0124000020FFFCFF0F43
:101210005C014742E011474229B15E4A126802432D
:101220005C4B1A6004E05B4A12688243594B1A60B7
:10123000704739B1574A121D12680243554B1B1DA6
:101240001A6006E0534A121D12688243514B1B1D5F
:101250001A60704739B14F4A0C32126802434D4B45
:101260000C331A6006E04B4A0C3212688243494B39
:101270000C331A60704739B1464A10321268024383
:10128000444B10331A6006E0424A1032126882431F
:10129000404B10331A60704739B13E4A3C321268F5
:1012A00002433C4B3C331A6006E03A4A3C32126837
:1012B0008243384B3C331A60704739B1354A40326B
:1012C00012680243334B40331A6006E0314A403221
:1012D000126882432F4B40331A60704739B12D4A50
:1012E0004432126802432B4B44331A6006E0294A09
:1012F000443212688243274B44331A60704739B135
:10130000244A4C3212680243224B4C331A6006E0E6
:10131000204A4C32126882431E4B4C331A6070478D
:1013200039B11C4A5032126802431A4B50331A60CA
:1013300006E0184A503212688243164B50331A6046
:10134000704739B1134AD21F12780243114BDB1F89
:101350001A7006E00F4AD21F127882430D4BDB1F32
:101360001A7070470B486030006840F0807009497F
:1013700060310860704701460020064A083A12684A
:101380000A400AB1012000E0002070470149891F8E
:10139000087070471438024010B50446F64884427D
:1013A00008D101218014FFF766FF0021A014FFF788
:1013B00062FF3CE0F148844208D101210014FFF7AC
:1013C00049FF00212014FFF745FF30E0EC4884423C
:1013D00008D10121C013FFF73DFF0021E013FFF703
:1013E00039FF24E0E748844208D101214014FFF787
:1013F00042FF00216014FFF73EFF18E0E2488442FC
:1014000009D101210805FFF736FF00214FF48010B4
:10141000FFF731FF0BE0DD48844208D10121480588
:10142000FFF729FF00214FF40010FFF724FF10BD44
:1014300010B50022028802F441520B884C882343E5
:101440008C882343CC8823430C8923434C89234332
:101450008C892343CC8923431A430280838B4FF228
:10146000FF74234083830B8A038210BD2DE9F04F64
:1014700000250223002401270022002694469046DE
:101480009146B0F81CA04FF2400B0AEA0B0AA0F8F4
:101490001CA04FF0020AA0F820A0858BD1F808A06C
:1014A000BAF1020F01D100BF6CE0B1F804A0BAF1AB
:1014B000000F01D1012700E00227DFF8D4A2DAF8FB
:1014C00000A00AF4000ABAF1000F09D0DFF8C0A2A8
:1014D000DAF800A02AF4000ADFF8B4B2CBF800A0D2
:1014E000DFF8ACA20AF17C0ADAF800A0CAF3881887
:1014F000DFF89CA20AF17C0ADAF800A0CAF30279AC
:10150000DFF88CA2AAF1040ADAF800A00AF03F0C76
:10151000DFF880A2BAFBFCFA0AFB08FABAFBF9F67C
:10152000B1F806A0BAF5007F0ED14FEA162A0AEBF1
:101530008A0A4FEA4A0AD1F808B0BAFBFBFA0AF164
:10154000050A1FFA8AF20FE04FEA471AB6FBFAFAC9
:101550000AEB8A0A4FEA4A0AD1F808B0BAFBFBFA4A
:101560000AF1050A1FFA8AF24FF00A0AB2FBFAF2F0
:1015700002F00104A2EB040ACAF34F034FF6FF7A0C
:101580000AEA0424022B01DBFF2B01DD02230024E5
:10159000B1F806A04AEA040A4AEA030AA0F820A021
:1015A000B1F804A0B1F80CB04AEA0B0AB1F802B0E5
:1015B0004AEA0B0AB1F800B04AEA0B0A4AF4006A98
:1015C0004AEA05058583BDE8F08F0021018041804E
:1015D0008180C180018141818181C1810721018296
:1015E00070470021018041808180C180022181609B
:1015F00000218181704721B1028842F040020280BF
:1016000004E002884FF6BF731A400280704721B190
:10161000828B42F48062828304E0828B4FF6FF3338
:101620001A408283704702884FF2FF731A4002808B
:1016300002880A4302807047B1F5804F04D10288C6
:1016400042F48042028004E002884BF6FF731A40A5
:10165000028070474FF6FF62914204D0028842F444
:101660008072028004E002884FF6FF631A40028015
:10167000704721B1828842F00402828004E08288AF
:101680004FF6FB731A408280704721B1828842F086
:101690001002828004E082884FF6EF731A40828045
:1016A000704730B500220023848B4FF240052C4058
:1016B000848302240484828B0C88B4F5007F01D0DB
:1016C0000C8814B94FF4807308E00C88B4F5407F9F
:1016D00003D00C88B4F5807F00D100238C888D89DD
:1016E0002C434D882C431C4344F4006422438283E2
:1016F00030BD0146888970478181704721B10288D9
:1017000042F40052028004E002884DF6FF731A4052
:1017100002807047018841F4805101807047024681
:101720000020012901D0108B00E0908A704701460B
:10173000088A70471AB183880B43838002E083884C
:101740008B438380704730B5002400230C110125A2
:10175000A540ABB21AB185881D43858002E085881B
:101760009D43858030BD0246002013890B400BB19C
:10177000012000E0002070470030014000380040A8
:10178000003C004000340140005001400054014042
:101790000838024040787D01CA4302817047F0B5A5
:1017A0000246002000240023002501F00F07012637
:1017B000BE40B4B20B1101269E40B3B2968806EA31
:1017C00003051689264016B10DB1012000E0002066
:1017D000F0BD10B5002201F00F040123A3409AB21E
:1017E000D343038110BD000010B50446FE48844277
:1017F00008D101210846FFF73EFD00210120FFF737
:101800003AFD9DE0B4F1804F08D101210846FFF771
:1018100021FD00210120FFF71DFD91E0F3488442E6
:1018200008D101210220FFF715FD00210220FFF75A
:1018300011FD85E0EE48844208D101210420FFF724
:1018400009FD00210420FFF705FD79E0E948844205
:1018500008D101210820FFF7FDFC00210820FFF737
:10186000F9FC6DE0E448844208D101211020FFF723
:10187000F1FC00211020FFF7EDFC61E0DF4884421D
:1018800008D101212020FFF7E5FC00212020FFF7EF
:10189000E1FC55E0DA48844208D101210220FFF73B
:1018A000EAFC00210220FFF7E6FC49E0D54884422B
:1018B00009D101210804FFF7DEFC00214FF480303C
:1018C000FFF7D9FC3CE0D048844209D1012148040B
:1018D000FFF7D1FC00214FF40030FFF7CCFC2FE0E4
:1018E000CA48844209D101218804FFF7C4FC0021C1
:1018F0004FF48020FFF7BFFC22E0C548844208D1A6
:1019000001214020FFF7A6FC00214020FFF7A2FCA8
:1019100016E0C048844208D101218020FFF79AFCDC
:1019200000218020FFF796FC0AE0BB48844207D1E3
:1019300001218015FFF78EFC0021A015FFF78AFC1E
:1019400010BD00220288A84B98420ED0AC4B9842A2
:101950000BD0B0F1804F08D0A44B984205D0A44BD7
:10196000984202D0A34B984204D14FF68F731A408D
:101970004B881A43A04B984207D0A04B984204D002
:101980004FF6FF431A400B891A4302804B68C3622B
:101990000B880385944B984202D0994B984201D111
:1019A0008B7A03860123838270474FF0FF314160B9
:1019B000002101800181418081727047018582820E
:1019C00070470A46002101884FF68F731940114372
:1019D0000180704741627047C16270470146486AA2
:1019E00070470146088D704721B1028842F002021B
:1019F000028004E002884FF6FD731A4002807047AF
:101A000021B1028842F00402028004E002884FF60D
:101A1000FB731A400280704721B1028842F08002B5
:101A2000028004E002884FF67F731A4002807047FC
:101A300002884FF6F7731A40028002880A43028038
:101A4000704702884FF6FF431A40028002880A431B
:101A50000280704721B1028842F00102028004E056
:101A600002884FF6FE731A400280704770B500245A
:101A700000220023058C4FF6FE7635400584028C4B
:101A80008388048B4FF68F752C40B51E2C400D8833
:101A90002C43751E2A408D892A434D882A43524D76
:101AA000A84202D0564DA84213D14FF6F7752A40EE
:101AB000CD892A434FF6FB752A408D882A434FF67D
:101AC000FF652B404FF6FF552B400D8A2B434D8A67
:101AD0002B43838004838D684563028470BD70B599
:101AE000002400220023058C4FF6EF763540058454
:101AF000028C8388048B48F6FF752C404FF6FF4517
:101B00002C400D884FF6FF7606EA05252C434FF64C
:101B1000DF752A408D8906EA05152A434D8806EAB5
:101B200005152A43304DA84202D0354DA8421DD19B
:101B30004FF67F752A40CD894FF6FF7606EA0515E8
:101B40002A434FF6BF752A408D8806EA05152A43B9
:101B50004FF6FF352B404FF2FF752B400D8A06EAFA
:101B600085052B434D8A06EA85052B438380048334
:101B70008D688563028470BD70B500240022002347
:101B8000058C4FF6FF6635400584028C8388848B74
:101B90004FF68F752C404FF6FC752C400D882C436A
:101BA0004FF6FF552A408D894FF6FF7606EA052548
:101BB0002A434D8806EA05252A430B4DA84202D048
:101BC0000F4DA84238D14FF2FF752A40CD894FF60C
:101BD000FF7606EA05252A434FF6FF352A408D8811
:101BE00006EA05252A4319E00000014000040040F0
:101BF00000080040000C00400010004000140040AD
:101C00000004014000400140004401400048014000
:101C100000180040001C0040002000404EF6FF75F8
:101C20002B404DF6FF752B400D8A06EA05152B4318
:101C30004D8A06EA05152B43838084838D68C5632E
:101C4000028470BD70B5002200230024058C4EF67E
:101C5000FF7635400584038C8488828B48F6FF75B7
:101C60002A404FF6FF452A400D884FF6FF7606EAD8
:101C700005252A434DF6FF752B408D8906EA05356B
:101C80002B434D8806EA05352B43FE4DA84202D072
:101C9000FD4DA84208D14BF6FF752C400D8A4FF63A
:101CA000FF7606EA85152C43848082838D6805645F
:101CB000038470BD00210180418081808160818129
:101CC000C18101824182704770B503460020002423
:101CD0001846183001258D40ACB21D8CA5431D84DB
:101CE00009B108290AD100EB610005684FF68F762B
:101CF000354005600568154305600FE00D1FC5F30D
:101D00004E052844056848F6FF76354005600568AD
:101D10004FF6FF7606EA02263543056070BD416343
:101D2000704781637047C1637047016470470A461A
:101D30000021018B4FF68F731940114301837047C7
:101D40000A460021018B48F6FF7319404FF6FF73D6
:101D500003EA02231943018370470A460021818B5D
:101D60004FF68F7319401143818370470A46002153
:101D7000818B48F6FF7319404FF6FF7303EA022385
:101D80001943818370470A460021018B4FF6F77390
:101D900019401143018370470A460021018B4FF21D
:101DA000FF7319404FF6FF7303EA022319430183BF
:101DB00070470A460021818B4FF6F7731940114393
:101DC000818370470A460021818B4FF2FF731940CF
:101DD0004FF6FF7303EA02231943818370470A46D3
:101DE0000021018B4FF6FB731940114301837047AB
:101DF0000A460021018B4FF6FF3319404FF6FF735F
:101E000003EA02231943018370470A460021818BAC
:101E10004FF6FB7319401143818370470A46002136
:101E2000818B4FF6FF3319404FF6FF7303EA02230D
:101E30001943818370470A460021018B4FF67F7357
:101E400019401143018370470A460021018BC1F3F9
:101E50000E014FF6FF7303EA022319430183704713
:101E60000A460021818B4FF67F731940114381830D
:101E700070470A460021818BC1F30E014FF6FF73B4
:101E800003EA02231943818370470A460021018C2B
:101E90004FF6FD7319401143018470470A46002133
:101EA000018C4FF6F77319401143018470470A46BD
:101EB0000021018C4FF6DF7319404FF6FF7303EAE0
:101EC00002131943018470470A460021018C4FF622
:101ED0007F7319404FF6FF7303EA0213194301841D
:101EE00070470A460021018C4FF6FF5319404FF608
:101EF000FF7303EA02231943018470470A46002155
:101F0000018C4FF2FF7319404FF6FF7303EA02236F
:101F10001943018470470A460021018C4DF6FF7376
:101F200019404FF6FF7303EA0233194301847047E7
:101F300030B5002301248C40A3B2048C9C4304845C
:101F4000048C02FA01F5ADB22C43048430BD30B5E7
:101F5000002304248C40A3B2048C9C430484048C8E
:101F600002FA01F5ADB22C43048430BD828B4FF2EE
:101F7000FF331A408283828B4FF6FF7303EA0123FB
:101F80001A4382837047F0B50C46154600210022A3
:101F90000026078C4EF6FF7C07EA0C070784818B2E
:101FA000028C4FF6FF7707EA043640F6FF473940C8
:101FB0004FF6FF7707EA052739434FF6FF7707EA21
:101FC0000337394345F6FF773A4046F480573A43A2
:101FD00081830284F0BD828B4FF6F3731A408283B3
:101FE000828B0A4382837047F0B50C461546002168
:101FF00000220026078C4FF6FF6C07EA0C070784C7
:10200000818B028C4FF6FF7707EA04264FF60C7798
:1020100039404FF6FF7707EA03172F4339434FF252
:10202000FF573A4046F480773A4381830284F0BDFB
:10203000028B4FF2FF331A400283028B4FF6FF737D
:1020400003EA01231A4302837047F0B50C46154694
:10205000002100220026078C4FF6EF7C07EA0C07D0
:102060000784018B028C4FF6FF7707EA041640F6CF
:10207000FF4739404FF6FF7707EA033739434FF6FA
:10208000FF7703E0000001400004014007EA052754
:1020900039434FF65F773A4046F010073A430183E1
:1020A0000284F0BD028B4FF6F3731A400283028B59
:1020B0000A4302837047F0B50C4615460021002202
:1020C000068C4FF6FE773E400684018B028C4FF65D
:1020D0000C7631407E1C06EA03162E4331434FF640
:1020E000F576324044F00106324301830284F0BDAC
:1020F00070B505460C46208850B92389A2886188AE
:102100002846FFF7D8FFE1882846FFF7CBFF25E0F8
:10211000208804280AD12389A28861882846FFF7ED
:1021200094FFE1882846FFF783FF17E020880828FE
:102130000AD12389A28861882846FFF755FFE188E4
:102140002846FFF748FF09E02389A28861882846CE
:10215000FFF719FFE1882846FFF708FF70BD00214F
:1021600001804180012181800021C180018170476F
:102170002DE9F04105460C4600260127608808B984
:10218000022600E00026A088012801D1022700E0F5
:1021900001272088A0B92389A28861882846FFF7F3
:1021A0008AFFE1882846FFF77DFF23893A463146BA
:1021B0002846FFF74AFFE1882846FFF739FF13E07A
:1021C0002389A28861882846FFF73FFFE1882846D7
:1021D000FFF72EFF23893A4631462846FFF76BFF6B
:1021E000E1882846FFF75EFFBDE8F0810146486BB5
:1021F00070470146886B70470146C86B70470146BF
:10220000086C70470A884B881A438B881A43CB881E
:102210001A430B891A434B891A438B891A43A0F836
:10222000442070470021018041808180C18001816C
:1022300041818181704731B1B0F8442042F40042BD
:10224000A0F8442005E0B0F84420C2F30E02A0F844
:102250004420704721B1828842F00402828004E069
:1022600082884FF6FB731A408280704721B18288C2
:1022700042F00102828004E082884FF6FE731A4029
:10228000828070471AB183890B43838102E083897E
:102290008B43838170478182704702460020138AF6
:1022A0000B400BB1012000E000207047CA430282BE
:1022B000704730B50246002000230024158A05EA45
:1022C0000103958905EA010413B10CB1012000E076
:1022D000002030BDCA430282704741EA0203A0F8E1
:1022E000483070471AB183890B43838102E08389A8
:1022F0008B438381704721B1828842F0080282803B
:1023000004E082884FF6F7731A4082807047018993
:102310004FF6F8721140018170470A460021018989
:102320004FF68F73194011430181704730B5044651
:102330000D4629462046FFF7F0FF208940F00700B0
:10234000208130BD2DE9F04104460D4616461F465A
:10235000602D06D13B46012231462046FFF775FE2F
:1023600005E03B46012231462046FFF7A4FE294600
:102370002046FFF7D2FF208940F007002081BDE80A
:10238000F08130B50C4600210189C9B24FF6FF75C6
:1023900005EA0325154325432943018130BD2DE975
:1023A000F04105460E4617469846002443463A46F5
:1023B00031462846FFF7E5FF2C894FF6F8700440B8
:1023C00044F007044FF68F70044044F070042C81F1
:1023D000BDE8F081F0B504460D4616461F463B4663
:1023E000324629462046FFF7CCFF208940F4804042
:1023F0002081F0BD82884FF68F731A4082808288D8
:102400000A438280704702894FF6F8731A400281AE
:1024100002890A430281704702894FF67F731A408E
:10242000028102890A4302817047F0B50C461546C5
:102430001E460021002200230189028B038C4FF6E7
:10244000F877394021434FF6FC473A4040F20117F4
:102450003A434FF6DD773B404FF6FF7707EA061722
:102460002F433B43018102830384F0BD21B1828865
:1024700042F08002828004E082884FF67F731A4027
:1024800082807047A0F850107047000010B50446D5
:10249000FA48844208D101211020FEF7ECFE002109
:1024A0001020FEF7E8FE57E0F548844209D10121EB
:1024B0004804FEF7CFFE00214FF40030FEF7CAFEBD
:1024C0004AE0F048844209D101218804FEF7C2FEA7
:1024D00000214FF48020FEF7BDFE3DE0EA48844233
:1024E00009D10121C804FEF7B5FE00214FF40020F8
:1024F000FEF7B0FE30E0E548844209D1012108052D
:10250000FEF7A8FE00214FF48010FEF7A3FE23E0A3
:10251000DF48844208D101212020FEF7ACFE0021D3
:102520002020FEF7A8FE17E0DA48844209D10121F5
:102530008807FEF78FFE00214FF08040FEF78AFEED
:102540000AE0D548844207D101214005FEF782FE0A
:1025500000216005FEF77EFE10BD2DE9FF47054610
:102560000E460024A14600BFA046B08900B100BFBE
:102570002C8A24F44054F08804432C82AC8941F224
:102580000C608443B088318908437189084304434F
:10259000AC81AC8A24F44074B0890443AC826846B0
:1025A000FEF723FDB548854202D0B948854202D1E5
:1025B000DDF80C9001E0DDF80890A88900F40040F7
:1025C00040B109EBC90000EB091031684900B0FBCC
:1025D000F1F707E009EBC90000EB09103168890049
:1025E000B0FBF1F76420B7FBF0F00401200964218F
:1025F00001FB1078A88900F4004040B1322000EBC4
:10260000C800B0FBF1F000F00700044308E03220FE
:1026100000EB08106421B0FBF1F000F00F00044360
:102620002C81BDE8FF874FF41651016000218180A5
:10263000C18001810C21418100218181704710B549
:1026400002460020108A20F470600B884C882343D7
:102650008C882343CC8823431843108210BD00216B
:10266000018041808180C180704721B1828942F41C
:102670000052828104E082894DF6FF731A40828104
:102680007047028B02F47F420283028B0A4302836B
:10269000704721B1828942F40042828103E082893D
:1026A000C2F30E028281704721B1828A42F4006235
:1026B000828204E0828A4FF2FF731A40828270475E
:1026C000C1F308028280704701468888C0F3080081
:1026D0007047028A4FF6F0731A400282028A0A4358
:1026E0000282704721B1828942F00202828104E0B5
:1026F00082894FF6FD731A408281704782894FF2BA
:10270000FF731A40828182890A4382817047028A5C
:102710004FF6DF731A400282028A0A430282704730
:1027200021B1028A42F48042028204E0028A4BF61E
:10273000FF731A4002827047818941F00101818153
:10274000704721B1828A42F00802828204E0828AC4
:102750004FF6F7731A4082827047028BD2B202831F
:10276000028B42EA01220283704721B1828A42F041
:102770002002828204E0828A4FF6DF731A4082824E
:10278000704721B1828A42F01002828204E0828A7C
:102790004FF6EF731A4082827047828A4FF6FB73BE
:1027A0001A408282828A0A438282704721B1828AD9
:1027B00042F00202828204E0828A4FF6FD731A40E0
:1027C000828270471AB1838A0B43838202E0838A34
:1027D0008B4383827047F0B5034600240026002512
:1027E000002040F66A17B94200D100BF1846C1F375
:1027F000421401F01F06012707FA06F5012C01D14A
:102800000C3004E0022C01D1103000E014301AB179
:1028100007682F43076002E00768AF430760F0BD19
:1028200002460020B1F5007F00D100BF13880B40A5
:102830000BB1012000E00020704701F40072B2F5F6
:10284000007F00D100BFCA430280704770B50246C6
:10285000002400230025002040F66A16B14200D172
:1028600000BFC1F3421501F01F03012606FA03F36E
:10287000012D13D19689334017E00000001001406C
:102880000044004000480040004C00400050004020
:102890000014014000780040007C0040022D02D16D
:1028A000168A334001E0968A33400C12012606FA5C
:1028B00004F41688344013B10CB1012000E000206C
:1028C00070BD10B50022002340F66A14A14200D169
:1028D00000BF0A1201249440A3B2DC43048010BD5F
:1028E0000CB50020019000907648006840F48030DC
:1028F0007449086000BF7348006800F4003000901D
:102900000198401C0190009818B90198B0F5A06F8B
:10291000F1D16C48006800F4003010B10120009043
:1029200001E0002000900098012846D16548403021
:10293000006840F080506349403108606248006898
:1029400040F44040604908605E48083000685D49D6
:10295000083108600846006840F4004008600846F6
:10296000006840F4A05008605848091F0860081F1C
:10297000006840F08070091F086000BF514800687F
:1029800000F000700028F9D040F20570504908604E
:102990004C480830006820F003004A4908310860BC
:1029A0000846006840F00200086000BF4548083053
:1029B000006800F00C000828F8D10CBD10B545489F
:1029C000006840F47000434908603E48006840F0E9
:1029D00001003C49086000203A4908310860394844
:1029E00000683D490840374908603C48091D0860B7
:1029F000081F006820F48020091F0860002031496A
:102A00000C310860FFF76CFF4FF0006031498039EE
:102A1000086010BD70B500200022022300240221AE
:102A2000284D08352D6805F00C0020B1042806D08B
:102A3000082834D107E02A4D2A4E356033E02A4D6C
:102A4000284E35602FE01F4D2D1D2D68C5F3805495
:102A50001C4D2D1D2D6805F03F0154B1224DB5FBD5
:102A6000F1F5184E361D3668C6F3881605FB06F2DA
:102A700009E01B4DB5FBF1F5124E361D3668C6F365
:102A8000881605FB06F20F4D2D1D2D68C5F3014577
:102A90006D1C6B00B2FBF3F5124E356003E0104D78
:102AA000104E356000BF00BF064D08352D68C5F3D8
:102AB00003150E4E705D0B4D2D68C540094E3560F7
:102AC00070BD0000003802400070004019544007FB
:102AD000003C024088ED00E0FFFFF6FE10300024CD
:102AE0000024F4003400002040787D0138000020EC
:102AF0000648804706480047FEE7FEE7FEE7FEE798
:102B0000FEE7FEE7FEE7FEE7FEE7FEE7BD29000879
:102B10008901000870477047704770470146087880
:102B200070470170704700207047704770477047CA
:102B300000B141B9AFF22302F94B9A60AFF2290319
:102B4000F74AD36002E0F64A9060D160704700B166
:102B500041B9AFF23B02F24B1A61AFF24103F04AC6
:102B6000536102E0EE4A10615161704700BFEC4AC8
:102B7000128802F48072002AF9D000B141B9AFF294
:102B80006302E74B9A61AFF26503E54AD36102E065
:102B9000E34A9061D161704700BFE14A128802F4B4
:102BA0000072002AF9D000B141B9AFF28502DC4BC6
:102BB0009A61AFF28903DA4AD36102E0D84A9061A0
:102BC000D161704710B54FF4385001F0EBFA00F0C6
:102BD000010008B1012400E00024204610BD10B51A
:102BE00000244FF4385001F0DDFA00F0300008B155
:102BF000012400E00024204610BD10B54FF43850E9
:102C000001F0D0FA044624F0800421464FF43850F5
:102C100001F0E2FA4FF4385001F0C4FA044644F0EF
:102C2000800421464FF4385001F0D6FA10BD70B53B
:102C3000054600244FF4385001F0B4FA044604F07D
:102C4000400010B94FF0FF3070BD24F03804012D62
:102C500002D144F0300401E044F0380421464FF43E
:102C6000385001F0B9FAFFF7C8FF4FF4385001F0BF
:102C700099FA0446012D04D104F0300030B100204F
:102C8000E2E704F0380008B10020DDE74FF0FF3044
:102C9000DAE770B5044600254FF4385001F082FAA7
:102CA0000546C5F38010207005F03800202802D0BA
:102CB000382803D100BF0120607002E0002060705E
:102CC00000BF00BF05F03800102805D0182802D03A
:102CD000202804D100BF00BF0120A07002E0002026
:102CE000A07000BF00BF05F03800082805D01828E4
:102CF00002D0202804D100BF00BF0120E07002E014
:102D00000020E07000BF00BF70BD70B50546002414
:102D10002878012802D144F0400401E024F0400466
:102D20006878012802D144F0380412E0E8780128DC
:102D300008D1A878012802D144F0180409E044F031
:102D4000080406E0A878012802D144F0100400E04D
:102D500000BF21464FF4385001F03EFAFFF74DFF17
:102D600070BD70B50026002400254FF4B05001F06E
:102D700019FA06464FF4C05001F014FA04462546ED
:102D800006EB052085B2284670BD70B50446E5B255
:102D9000261229464FF4B05001F01EFA31464FF486
:102DA000C05001F019FA70BD70B50026002400254E
:102DB0004FF4A85001F0F6F900F0F0064FF4B850C7
:102DC00001F0F0F90446254606EB052085B22846B9
:102DD00070BD70B50446E5B2261205F0F0014FF45F
:102DE000A85001F0F9F931464FF4B85001F0F4F968
:102DF00070BD00B585B0062269464FF4106001F041
:102E000005FA042204A9900101F000FA042203A9A2
:102E10004FF4A06001F0FAF9042202A94FF47060A7
:102E200001F0F4F98021002001F0D6F9002001F032
:102E3000B9F9062269464FF4106001F004FA042241
:102E400004A9900101F0FFF9042203A94FF4A06046
:102E500001F0F9F9042202A94FF4706001F0F3F9CE
:102E600005B000BD2DE9F04105460E460027FFF7ED
:102E7000C0FF002D23D000BF002404E0285D3844AB
:102E800047B2601C44B2082CF8DB102F03DD4FF072
:102E9000FF30BDE8F08100240FE0295DA200521C44
:102EA0004FF4F85303EBC20001F096F92A5D214676
:102EB0001CA002F0A3F8601C44B2082CEDDB16B392
:102EC0000027002404E0305D384447B2601C44B25F
:102ED000082CF8DB102F02DD4FF0FF30D9E700247B
:102EE0000FE0315DA200521C4FF4F05303EBC2001F
:102EF00001F072F9325D214611A002F07FF8601CEA
:102F000044B2082CEDDB0020C3E72DE9FC41064666
:102F10000C460025002000900190102E71D21DE07B
:102F200048000020736F636B5B25645D74782062DA
:102F300075662073697A653A2025640D0A000000E1
:102F4000736F636B5B25645D7278206275662073B6
:102F5000697A653A2025640D0A000000DFE806F072
:102F6000080B1A161E2226323F5255595D5E626DBD
:102F7000FFF73FFF6FE01CB100940098083001900C
:102F8000DDE90001FFF76EFFBDE8FC812088FFF757
:102F900020FF60E0FFF708FF20805CE02088FFF75B
:102FA000F4FE58E0FFF7DDFE208054E02088011297
:102FB0004FF4985001F010F921784FF4A05001F02F
:102FC0000BF948E04FF4A05001F0ECF807464FF43D
:102FD000985001F0E7F807EB002020803BE08248A2
:102FE000807820708048C07860707F480079A07039
:102FF0007D484079E0707C488079207100206071C4
:1030000029E025E0FFF7F9FD25E02046FFF77DFEEA
:1030100021E02046FFF73DFE1DE01CE02078FFF791
:1030200006FEB1E7FFF7DBFDC5B268B2401C10B980
:103030004FF0FF30A8E725700DE0FFF7C3FDC5B2E4
:1030400068B2401C10B94FF0FF309DE7257002E0D8
:103050004FF0FF3098E700BF002095E770B50446B9
:103060004FF4D85001F09EF820704FF4D05001F08A
:1030700099F805464FF4C85001F094F805EB00208C
:10308000608070BD10B5044621784FF4D85001F02F
:10309000A3F8608801124FF4C85001F09DF8A178A0
:1030A0004FF4D05001F098F810BD10B5002001F099
:1030B00079F810BD70B50446002524F03A0008B137
:1030C000681E70BD002001F06DF8054625432946B5
:1030D000002001F081F80020F3E710B50446062235
:1030E00021464FF4106001F091F8042204F10E0122
:1030F000900101F08BF8042204F10A014FF4A06062
:1031000001F084F80422A11D4FF4706001F07EF8F4
:1031100036480078A07435484178E174817821758B
:10312000C178617532480078A07510BD10B50446AD
:10313000062221464FF4106001F085F8042204F1C4
:103140000E01900101F07FF8042204F10A014FF40E
:10315000A06001F078F80422A11D4FF4706001F026
:1031600072F8A07C21490870E07C4870207D88704E
:10317000607DC870A07D1E49087010BD70B5054601
:103180000C46062D1CD2DFE805F003070B0F1317C2
:103190002046FFF7CBFF16E02046FFF79EFF12E028
:1031A0002078FFF787FF70BDFFF77FFF20700AE0F0
:1031B0002046FFF767FF06E02046FFF74FFF02E0DB
:1031C0004FF0FF30EFE700BF0020ECE770B504469A
:1031D0004FF4385000F0E6FF0546C5F38000E0707C
:1031E000C5F34000A07070BD4800002068000020BA
:1031F0006C00002010B5044600BF082C02DD4FF023
:10320000FF3010BD00BFA100491C4FF4807202EBDB
:10321000C100102100F0E0FF00BFA100491C4FF4E5
:10322000807202EBC10000F0BDFF0028F5D1A100C3
:10323000491C4FF4007202EBC1001F2100F0CCFFCB
:103240000120A040FB4909888143FA480180002001
:10325000F94921F81400F949085500BFA100491C9B
:103260004FF4407202EBC10000F09CFF0028F5D142
:103270000120C6E72DE9F04104460E4617461D46DB
:1032800000BF082C03DD4FF0FF30BDE8F08100BF28
:10329000012E04D0022E03D0042E03D101E000BF82
:1032A00000BF02E06FF00400EFE700BF05F006008A
:1032B00010B16FF00500E8E705B3012E02D0022E31
:1032C0001AD106E005F0210010B96FF00500DCE727
:1032D00013E005F0200028B105F0800010B96FF070
:1032E0000500D2E705F0100028B105F0800010B904
:1032F0006FF00500C9E700E000BF00BF2046FFF700
:1033000079FF05F0F00242EA0601A200521C0023F8
:1033100003EBC20000F060FF7FB9C948078800884E
:10332000401CC7490880084600884FF6F071884263
:1033300003D14FF44040C24908803912A200521C08
:103340004FF4806303EBC20000F046FFF9B2A20025
:10335000521C4FF4806303EBC20202F5807000F050
:103360003BFFA100491C4FF4807202EBC100012118
:1033700000F032FF00BFA100491C4FF4807202EB45
:10338000C10000F00FFF0028F5D105F00100A040BA
:10339000AC4909880843AB4908800120A040A549F1
:1033A00009888143A34801800020A34921F8140023
:1033B000A249085500BFA100491C4FF4407202EB1E
:1033C000C10000F0EFFE0028F5D060B25DE710B557
:1033D000044600BF082C02DD4FF0FF3010BD00BFD7
:1033E00000BFA100491C002202EBC10000F0DAFE80
:1033F00000F00F00012802D06FF00400EEE700BFDC
:1034000000BFA100491C4FF4407202EBC10000F064
:10341000C9FE132802D06FF00200DFE700BFA10051
:10342000491C4FF4807202EBC100022100F0D4FE6F
:1034300000BFA100491C4FF4807202EBC10000F0F4
:10344000B1FE0028F5D10EE0A100491C4FF48072B6
:1034500002EBC10000F0A6FE28B92046FFF7CAFE25
:103460006FF00300BAE7A100491C4FF4407202EB71
:10347000C10000F097FE1428E6D10120AEE770B538
:1034800004460D46164600BF082C02DD4FF0FF3003
:1034900070BD00BF00BFA100491C002202EBC100AB
:1034A00000F080FE00F00F00012802D06FF0040051
:1034B000EEE700BF00BFA100491C4FF4407202EBD1
:1034C000C10000F06FFE132802D06FF00200DFE7AA
:1034D00000BF2978687861F31F200146A87861F35E
:1034E0001F200146287861F31F200146481C00B1C7
:1034F00011B96FF00B00CBE716B96FF00A00C7E700
:10350000A100491C4FF4406202EBC100042229468D
:1035100000F099FE3112A200521C4FF4805303EBCD
:10352000C20000F059FEF1B2A200521C4FF48053C9
:1035300003EBC20202F5807000F04EFEA100491CB0
:103540004FF4807202EBC100042100F045FE00BF81
:10355000A100491C4FF4807202EBC10000F022FE72
:103560000028F5D10120A04036490988084008B15B
:1035700000208DE716E0A100491C4FF4007202EB19
:10358000C10000F00FFE00F0080058B1A100491C76
:103590004FF4007202EBC100082100F01DFE6FF035
:1035A0000C0075E7A100491C4FF4407202EBC1000A
:1035B00000F0F8FD1728DED1012069E710B50446B8
:1035C00000BF082C02DD4FF0FF3010BD00BF00BF70
:1035D000A100491C002202EBC10000F0E3FD00F055
:1035E0000F00012802D06FF00400EEE700BFA10039
:1035F000491C4FF4807202EBC100082100F0ECFD81
:1036000000BFA100491C4FF4807202EBC10000F022
:10361000C9FD0028F5D10120A04006490988814351
:10362000044801800120A04006490988084058B19B
:103630000020CAE772000020AC04002074000020C3
:103640006E0000207000002010E0A100491C4FF423
:10365000007202EBC10000F0A5FD00F0080028B1E7
:103660002046FFF7C7FD6FF00C00AEE7A100491C34
:103670004FF4407202EBC10000F094FD0028E4D149
:103680000120A2E72DE9F0410446884615460026B0
:10369000002700BF082C02DD701EBDE8F08100BFCE
:1036A00000BFA100491C002202EBC10000F07AFD1E
:1036B00000F00F00012802D06FF00400EDE700BF1A
:1036C00000BF15B96FF00D00E7E700BFA100491C6E
:1036D0004FF4407202EBC10000F064FD0646172E65
:1036E00004D01C2E02D06FF00600D6E70120A040C7
:1036F000F9490988084040B3A100491C4FF4007201
:1037000002EBC10000F04EFD00F01F0606F01000B5
:1037100080B1A100491C4FF4007202EBC1001021DE
:1037200000F05AFD0120A040EB4909888143EA4896
:1037300001800AE006F0080028B12046FFF75AFD94
:103740006FF00C00A9E70020A7E7A100491C4FF487
:10375000F85202EBC10000F025FD4FF6FF7101EABF
:103760008027BD4200DD3D4623E0204600F08DFD70
:103770000746A100491C4FF4407202EBC10000F063
:1037800011FD0646172E07D01C2E05D02046FFF748
:1037900031FD6FF0060080E70120A040CF49098885
:1037A000084018B1BD4201DD002076E7BD4200DCD3
:1037B00000E0DAE700BF2A464146204600F0D1FD8E
:1037C000A100491C4FF4807202EBC100202100F0DF
:1037D00003FD00BFA100491C4FF4807202EBC10041
:1037E00000F0E0FC0028F5D10120A040BA4909888A
:1037F0000843B949088028464FE72DE9F0470446B9
:10380000884616460027002500BF082C02DD681EEA
:10381000BDE8F08700BF00BFA100491C002202EBF9
:10382000C10000F0BFFC00F00F00012802D06FF0D3
:103830000400EDE700BF00BF16B96FF00D00E7E729
:1038400000BFA100491C4FF4F05202EBC10000F090
:10385000A9FC4FF6FF7101EA8025B54200DA2E4639
:1038600038E0204600F047FD0546A100491C4FF412
:10387000407202EBC10000F095FC0746172F1ED0E6
:103880001C2F16D105B126E0204600F0FEFC814633
:10389000A100491C4FF4F85202EBC10000F082FC79
:1038A000B9EB802F0BD12046FFF7A4FC6FF0060088
:1038B000AEE72046FFF79EFC6FF00600A8E7012068
:1038C000A04086490988084010B10DB900209FE743
:1038D00005B100E0C5E700BFB54200DA2E4632462A
:1038E0004146204600F07FFDA100491C4FF4807244
:1038F00002EBC100402100F06FFC00BFA100491C99
:103900004FF4807202EBC10000F04CFC0028F5D1AE
:1039100030467DE72DE9F04704468A4616461D46A7
:10392000DDF820900027B84600BF082C02DD781E85
:10393000BDE8F08700BFA100491C002202EBC100D6
:1039400000F030FC00F00F00022802D0042802D161
:1039500000E000BF02E06FF00400E9E700BF00BF35
:1039600016B96FF00D00E3E700BF2878697860F3BF
:103970001F210846A97860F31F210846E97860F303
:103980001F210846286810B96FF00B00D0E7B9F185
:10399000000F02D16FF00A00CAE7A100491C4FF4E2
:1039A000407202EBC10000F0FDFB0746422F04D03D
:1039B000222F02D06FF00600BAE7A100491C4FF495
:1039C000406202EBC1000422294600F03CFC4FEAB1
:1039D0002921A200521C4FF4805303EBC20000F0D7
:1039E000FBFB09F0FF01A200521C4FF4805303EBD4
:1039F000C20202F5807000F0EFFBA100491C4FF4F9
:103A0000F85202EBC10000F0CDFB4FF6FF7101EA66
:103A10008028464500DD46461CE0204600F035FC87
:103A20008046A100491C4FF4407202EBC10000F037
:103A3000B9FB10B96FF003007AE70120A0402749D5
:103A40000988084018B1464501DD002070E7464569
:103A500000DC00E0E1E700BF32465146204600F0BE
:103A600080FCA100491C4FF4807202EBC1002021B0
:103A700000F0B2FB00BFA100491C4FF4807202EBC2
:103A8000C10000F08FFB0028F5D129E0A100491CFE
:103A90004FF4007202EBC10000F084FB00F01F073E
:103AA00007F0100048B1A100491C4FF4007202EB6E
:103AB000C100102100F090FB13E007F0080078B17E
:103AC000A100491C4FF4007202EBC100082100F074
:103AD00083FB6FF00C002BE77200002070000020C9
:103AE000D4E700BF304623E72DE9FC4704468A4669
:103AF00016461F46DDF82880002500BF082C02DD91
:103B0000681EBDE8FC8700BFA100491C002202EB33
:103B1000C10000F047FB814600F00F00022802D0F0
:103B2000042802D100E000BF02E06FF00400E8E7E3
:103B300000BF00BF16B96FF00D00E2E700BFF94803
:103B400030F81400E8B91AE0204600F0D4FB05462E
:103B5000A100491C4FF4407202EBC10000F022FBAF
:103B600010B96FF00300CCE70120A040EE490988AE
:103B7000084010B10DB90020C3E705B100E0E3E74C
:103B800000BF0020E949085509F00700022802D0CB
:103B900004287DD157E0E34830F81400E8BB082240
:103BA0006946204600F01FFCA100491C4FF48072BA
:103BB00002EBC100402100F00FFB00BFA100491C37
:103BC0004FF4807202EBC10000F0ECFA0028F5D14E
:103BD0009DF8000038709DF8010078709DF8020093
:103BE000B8709DF80300F8709DF80400A8F8000074
:103BF0009DF8050098F8001000EB0120A8F80000DF
:103C00009DF80600C74921F814009DF8070011F837
:103C1000141000EB0120C34900E004E021F8140077
:103C20008020C2490855BF4830F81400B04201DD79
:103C3000354602E0BB4830F814502A46514620462B
:103C400000F0D1FB55E0B74830F81400A8BB0222C1
:103C50006946204600F0C7FBA100491C4FF4807262
:103C600002EBC100402100F0B7FA00BFA100491CDF
:103C70004FF4807202EBC10000F094FA0028F5D1F5
:103C80009DF80000A74921F814009DF8010000E00C
:103C900027E011F8141000EB0120A24921F81400CC
:103CA000084630F8140040F2EA51884206DD20460A
:103CB000FFF7A0FA6FF47A7023E702E080209B49B7
:103CC0000855984830F81400B04201DD354602E04E
:103CD000944830F814502A465146204600F083FBA1
:103CE00007E02946204600F0C0FB8E4820F814501B
:103CF00000BF00BFA100491C4FF4807202EBC1005D
:103D0000402100F069FA00BFA100491C4FF4807205
:103D100002EBC10000F046FA0028F5D1814830F8E6
:103D20001400401B7F4921F81400084630F81400A5
:103D300028B17E48005D40F001007C4908552846C6
:103D4000DFE62DE9F04104460E461546002700BF88
:103D5000082C02DD781EBDE8F08100BF082E7DD260
:103D6000DFE806F0041C23313F515D702F78012FEE
:103D700007D10120A0406C49098808436A4908809E
:103D80000BE03FB90120A04067490988814366489C
:103D9000018002E06FF00900DDE762E06248008820
:103DA000204100F0010028705BE0A100491C4FF4A5
:103DB000F85202EBC10000F0F5F94FF6FF7101EA8D
:103DC000802028804DE0A100491C4FF4F05202EB06
:103DD000C10000F0E7F94FF6FF7101EA802028806A
:103DE0003FE028781F2802DD6FF00900B3E72A784A
:103DF00002F01F01A200521C4FF4007303EBC2003B
:103E000000F0EAF92DE0A100491C4FF4007202EB2A
:103E1000C10000F0C7F900F01F00287021E02878E9
:103E20001F2802DD6FF0090095E72A7802F01F01D4
:103E3000A200521C4FF4305303EBC20000F0CCF947
:103E40000FE00BE0A100491C4FF4305202EBC1001F
:103E500000F0A8F900F01F00287000BF6FF0090003
:103E600079E700BF012076E770B504460E46154697
:103E700000BF082C02DD4FF0FF3070BD00BF082EE0
:103E800072D2DFE806F0B8040E182E39559E297854
:103E9000A200521C4FF4B05303EBC20000F09CF997
:103EA000ACE02978A200521C4FF4A85303EBC200E7
:103EB00000F092F9A2E02A881112A200521C4FF4DD
:103EC000905303EBC20000F087F92978A200521C3E
:103ED0004FF4905303EBC20202F5807000F07CF9BE
:103EE0008CE0A100491C4FF4406202EBC1000422A7
:103EF000294600F0A8F981E02A881112A200521C7C
:103F00004FF4805303EBC20000F066F92978A20059
:103F1000521C4FF4805303EBC20202F5807000F094
:103F20005BF96BE0AC0400207000002074000020FE
:103F300000BFA100491C002202EBC10000F032F9D1
:103F400000F00F00012802D06FF0040095E700BFD9
:103F5000A100491C4FF43C5202EBC10000F022F9D1
:103F600018B16FF0010088E745E0A100491C4FF44B
:103F7000807202EBC100222100F02EF916E0A100B0
:103F8000491C4FF4007202EBC10000F00BF900F085
:103F9000080058B1A100491C4FF4007202EBC100A7
:103FA000082100F019F96FF00C0066E7A100491C28
:103FB0004FF4807202EBC10000F0F4F80028DED16B
:103FC0001CE000BFA100491C002202EBC10000F070
:103FD000E9F800F00F00012802D06FF004004CE770
:103FE00000BF2978A200521C4FF43C5303EBC200DF
:103FF00000F0F2F802E06FF009003EE700BF012098
:104000003BE72DE9F04104460E46154600BF082C5B
:1040100003DD4FF0FF30BDE8F08100BF0D2E6FD201
:10402000DFE806F007121C263D48B55F7A7F848ED4
:10403000A100A100491C002202EBC10000F0B2F86F
:1040400000F0F0002870A5E0A100491C4FF4B05228
:1040500002EBC10000F0A6F828709BE0A100491C0B
:104060004FF4A85202EBC10000F09CF8287091E0D8
:10407000A100491C4FF4905202EBC10101F5807080
:1040800000F090F80746A100491C4FF4905202EB53
:10409000C10000F087F807EB0020287000BFA100E6
:1040A000491C4FF4406202EBC1000422294600F093
:1040B000ADF86FE0A100491C4FF4805202EBC10142
:1040C00001F5807000F06EF80746A100491C4FF41E
:1040D000805202EBC10000F065F807EB0020288059
:1040E00058E000BFA100491C002202EBC10000F013
:1040F00059F800F00F00012803D06FF004008AE7A0
:1041000045E000BFA100491C4FF43C5202EBC10046
:1041100000F048F828803DE0204600F0B6F82880FE
:1041200000BF204600F0E7F8288000BFA100491C2E
:104130004FF4407202EBC10000F034F8287029E01F
:10414000A100491C002202EBC10000F02BF801285D
:1041500004D1204600F0CFF8288003E00F4830F863
:104160001400288016E000BFA100491C002202EBC9
:10417000C10000F017F800F00F00012802D06FF026
:10418000040048E700BF0648005D287002E06FF0B9
:10419000010040E700BF01203DE70000AC04002023
:1041A000740000201CB50446C9498868804700BFD8
:1041B000200C8DF80000200A8DF80100E0B28DF887
:1041C0000200012201A9684600F0E2FDC049C8686A
:1041D00080479DF804001CBD13B582B00446BC495D
:1041E0008868804744F00404200C8DF80400200AFD
:1041F0008DF80500E0B28DF80600012203A901A8A0
:1042000000F02DFDB249C86880471FBD2DE9F84375
:1042100004460D4616460027B846AD4988688047D3
:10422000200C8DF80000200A8DF80100E0B28DF816
:10423000020032462946684600F0AAFDA449C86833
:104240008047BDE8F8832DE9F84304460D4616463D
:104250000027B8469E49886880479D49086980477D
:1042600044F00404200C8DF80000200A8DF80100B1
:10427000E0B28DF8020032462946684600F0EFFCB5
:104280009349C8688047BDE8F88370B504460025A7
:10429000002600BFA100491C4FF4005202EBC100F0
:1042A000FFF780FF0646A100491C4FF4005202EBC5
:1042B000C10101F58070FFF775FF00EB062086B2A3
:1042C000AEB1A100491C4FF4005202EBC100FFF750
:1042D00069FF0546A100491C4FF4005202EBC101E1
:1042E00001F58070FFF75EFF00EB052085B2B54257
:1042F000D0D1284670BD70B504460025002600BF09
:10430000A100491C4FF4185202EBC100FFF74AFF0D
:104310000646A100491C4FF4185202EBC10101F5F9
:104320008070FFF73FFF00EB062086B2AEB1A10020
:10433000491C4FF4185202EBC100FFF733FF05464A
:10434000A100491C4FF4185202EBC10101F5807025
:10435000FFF728FF00EB052085B2B542D0D12846F3
:1043600070BD2DE9F04704460F4616460025A846C5
:104370000EB9BDE8F087A100491C4FF4105202EBC2
:10438000C10101F58070FFF70DFF8146A100491CB6
:104390004FF4105202EBC100FFF704FF09EB0020BD
:1043A00085B22902A000801C01EBC00832463946C4
:1043B0004046FFF748FFA81985B22912A200521CF7
:1043C0004FF4105303EBC200FFF706FFE9B2A2005F
:1043D000521C4FF4105303EBC20202F58070FFF73A
:1043E000FBFE00BFC5E72DE9F04704460F46164621
:1043F0000025A8460EB9BDE8F087A100491C4FF47E
:10440000205202EBC10101F58070FFF7CBFE81461F
:10441000A100491C4FF4205202EBC100FFF7C2FE7D
:1044200009EB002085B22902A000C01C01EBC008E6
:10443000324639464046FFF7E9FEA81985B22912EF
:10444000A200521C4FF4205303EBC200FFF7C4FE3E
:10445000E9B2A200521C4FF4205303EBC20202F552
:104460008070FFF7B9FE00BFC5E72DE9F0410446B3
:104470000E460025A100491C4FF4205202EBC10159
:1044800001F58070FFF78EFE0746A100491C4FF42E
:10449000205202EBC100FFF785FE07EB002085B23A
:1044A000A81985B22912A200521C4FF4205303EB25
:1044B000C200FFF791FEE9B2A200521C4FF4205354
:1044C00003EBC20202F58070FFF786FEBDE8F081C3
:1044D000480000202DE9F047044688469146002513
:1044E0000027A100491C4FF4407202EBC100FFF706
:1044F00059FE00286CD013287ED0172802D01C2823
:104500007BD151E0CA48005D30B92146C9A000F016
:1045100075FD0120C64908552046FFF7ECFE061E32
:1045200041DDB6F5806F01DD4FF4806632464146CD
:104530002046FFF762F90546B54212D015B90020B2
:10454000BDE8F087002D0CDA2A462146BDA000F018
:1045500055FD2046FEF74EFE0020B5490855284679
:10456000EEE7AEB200271AE0F01B82B208EB0701BB
:104570002046FFF787F80546F01BA8420ED0002D15
:104580000CDA2A462146B5A000F038FD2046FEF799
:1045900031FE0020A64908552846D1E72F44B742EE
:1045A000E2D13046CCE747E02146B2A000F026FD3C
:1045B0002046FFF703F80546012801D02846BFE74B
:1045C00000209B4908552146AEA000F017FD33E0BE
:1045D0002146AFA000F012FD20234A4601212046CB
:1045E000FEF748FE0546A0420FD02A462146ACA061
:1045F00000F004FD002001E008E01CE08C490855B3
:104600002046FEF7F7FD28469AE715E02146AAA0C6
:1046100000F0F4FC2046FEF7DAFE0546012805D03E
:104620002146A8A000F0EAFC284689E72146AAA076
:1046300000F0E4FC00E000BF00BF284680E72DE961
:10464000FE4F0746884691464FF0000AB900491CC4
:104650004FF4407202EBC100FFF7A4FD00283BD0ED
:1046600022284DD13846FFF746FE051E33DDB5F54D
:10467000806F01DD4FF4806501A802AB2A464146F8
:1046800000903846FFF730FA0446002C07DC22463B
:10469000394695A000F0B2FC2046BDE8FE8FA5B2D9
:1046A000002616E0BDF804000090A81B82B208EBBB
:1046B000060102AB3846FFF72DF90446002C06DA56
:1046C000224639468FA000F099FC2046E5E73019D4
:1046D00086B2AE42E6D114E0394690A000F08EFCDE
:1046E00000234A4602213846FEF7C4FD0446B8427C
:1046F00001D02046D1E739466FA000F07FFC00E0F2
:1047000000BF00BF0120C8E72DE9F04704460F466F
:1047100090460025A946A100491C4FF4407202EBC7
:10472000C100FFF73FFD00284CD0132865D01728A3
:1047300002D01C2877D131E03D48005D30B92146D8
:104740003CA000F05BFC0120394908552046FFF7EA
:10475000D2FD061E21DDB6F5806F01DD4FF48066C7
:10476000324639462046FFF748F80546B54212D092
:1047700015B90020BDE8F087002D0CDA2A46214645
:1047800030A000F03BFC2046FEF734FD0020284915
:1047900008552846EEE73046ECE745E0214635A0CF
:1047A00000F02CFC2046FEF709FF0546012801D049
:1047B0002846DFE700201E490855214631A000F0B9
:1047C0001DFC31E0214659A000F018FC2023424690
:1047D00001212046FEF74EFD0546A0420CD02A4698
:1047E00021462FA000F00AFC002011490855204660
:1047F000FEF700FD2846BDE716E021462EA000F09A
:10480000FDFB2046FEF7E3FD0546012806D02146C4
:104810002CA000F0F3FB2846ACE704E021462EA0D4
:1048200000F0ECFB00E000BF00BF2846A2E700005C
:104830007C00002025643A20436F6E6E65637465CA
:10484000640D0A0025643A72656376282920657232
:10485000726F723A256C640D0A00000025643A7389
:10486000656E642829206572726F723A256C640D3A
:104870000A00000025643A436C6F736557616974E0
:104880000D0A000025643A436C6F7365640D0A00DD
:1048900025643A4C425453746172740D0A0000004E
:1048A00025643A736F636B65742829206572726F93
:1048B000723A256C640D0A0025643A4F70656E6586
:1048C000640D0A0025643A4C697374656E20657244
:1048D000726F720D0A00000025643A4C69737465AA
:1048E0006E206F6B0D0A000025643A2072656376B6
:1048F00066726F6D206572726F722E20256C640D6A
:104900000A00000025643A2073656E64746F2065A8
:1049100072726F722E20256C640D0A0025643A4C69
:10492000425553746172740D0A00000025643A52B6
:104930004F5453746172740D0A00000008B5FCF7FF
:104940005FFA0120FCF7C9FA00BF2948006800F0AF
:1049500002000028F9D00020FCF718FB00BFFCF78C
:104960001FFB0028FBD14FF48070224908600846E5
:10497000006840F4007008600846006840F48060F9
:1049800008600846006840F0050008600020FCF759
:104990000DFB0020FCF714FB0020FCF71BFB08209C
:1049A00003464FF4C072102100900020FCF7B2FAC9
:1049B0000120FCF7BFFA00BF3920FCF74AFA0028B3
:1049C000FAD00220FCF7E2FA00BFFCF7E9FA082867
:1049D000FBD101210848FCF7A0FB012141F21000A6
:1049E000FCF7DFFB01210846FCF7CAFB08BD00000D
:1049F00000380240003C0240010040001CB54FF46A
:104A0000C060009002208DF804008DF805000120A0
:104A10008DF8070069462848FCF732F9E02000903D
:104A200002208DF804008DF8050000208DF80600A6
:104A300002208DF8070069461F48FCF721F9022083
:104A4000009000208DF804008DF8070069461A4890
:104A5000FCF716F94FF4C050009001208DF80400C7
:104A600002208DF8050069461348FCF709F94FF458
:104A700080511148FCF780F94FF400610E48FCF7B3
:104A80007BF9072209210C48FCF785F907220A2146
:104A90000948FCF780F9052211460748FCF77BF925
:104AA000052207210448FCF776F905220621024871
:104AB000FCF771F91CBD00000000024008B51C2085
:104AC0008DF8000003208DF8010000208DF8020011
:104AD00001208DF803006846FBF725FE4FF47A703D
:104AE0002249486000200880088148804FF08040BB
:104AF000FCF727FF01222F219007FCF75FFF012120
:104B00008807FCF7A7FF012211469007FDF7BAFBC3
:104B100008BD10B501218807FDF7CBFB012817D18F
:104B200001218007FDF7D6FB114801880088401C51
:104B30000F4A1080B1F57A7F05DB0020114608800E
:104B400001200C4908700C480088401C0A49088064
:104B500010BD08480078704706490870704706483D
:104B6000008870470449088070470000BC0400209A
:104B70008600002084000020880000201FB54FF42C
:104B8000E13000900020ADF80400ADF80600ADF86B
:104B90000800ADF80C000C20ADF80A006946044886
:104BA000FDF7DBFC01210248FDF75FFD1FBD0000A2
:104BB0000010014000B585B00020ADF800004FF4B2
:104BC0008270ADF802000020ADF80400ADF80600D8
:104BD000ADF808004FF40070ADF80A000020ADF801
:104BE0000C00ADF80E000720ADF810006946B4487F
:104BF000FCF71EFC00BF0221B148FCF7B4FD002801
:104C0000F9D005B000BD10B504462146AC48FCF70C
:104C100073FD00BF0121AA48FCF7A5FD0028F9D0CB
:104C2000A748FCF766FDC0B210BD10B500BF022159
:104C3000A348FCF798FD0028F9D00021A048FCF714
:104C40005BFD00BF01219E48FCF78DFD0028F9D0D7
:104C50009B48FCF74EFDC0B210BD704770472DE970
:104C6000F04104460F461546E91C964800F057F9F6
:104C700020789449087060784870A0788870002681
:104C800005E0B95DF01C8F4A1154701C86B2AE422B
:104C9000F7DBE81C80B28C4908610020C862086319
:104CA000486308624FF4806088610020486284484D
:104CB0000C30486000208863C861086248614FF486
:104CC000003088624FF0C06008604020C8607D48B6
:104CD00088607E48FBF734FE4FF0C0607A49086078
:104CE0000020C8607748886078481838FBF728FEAD
:104CF000FBF76FFA01217548FBF75CFE0121734851
:104D00001838FBF757FE012211466D48FCF712FDDB
:104D1000012202216A48FCF70DFD01216848FCF7D9
:104D20006AFC00BF4FF0C0516848FBF7A0FE0028A6
:104D3000F8D000BF4FF0815164481838FBF797FE58
:104D40000028F7D0FBF74CFA4FF0C0515F48FBF753
:104D5000AAFE4FF081515D481838FBF7A4FE0021F0
:104D60005A48FBF727FE002158481838FBF722FE67
:104D7000002201215248FCF7DDFC002202215048AC
:104D8000FCF7D8FC00214E48FCF735FCBDE8F0816B
:104D900070B504460E461546E91C4A4800F0BFF8B7
:104DA000E91C4B4800F0BBF8207846490870607851
:104DB0004870A0788870E81C80B2434908610420DC
:104DC000C86200200863486308624FF4806088610D
:104DD000002048623A480C30486000208863C8616F
:104DE000086248614FF4003088624FF0C06008608C
:104DF0004020C860334888603448FBF7A1FD4FF07D
:104E0000C060314908600020C860314888602F4880
:104E10001838FBF795FD012211462948FCF78AFC5A
:104E2000012202212648FCF785FCFBF7D2F901217B
:104E30002648FBF7BFFD012124481838FBF7BAFDCF
:104E400001211F48FCF7D7FB00BF4FF0C0511F489E
:104E5000FBF70DFE0028F8D000BF4FF081511B4832
:104E60001838FBF704FE0028F7D0FBF7B9F94FF02C
:104E7000C0511648FBF717FE4FF081511348183800
:104E8000FBF711FE00211148FBF794FD00210F48AC
:104E90001838FBF78FFD002201210948FCF74AFC76
:104EA000002202210648FCF745FC00210448FCF7DB
:104EB000A2FB2A460649C91C304600F017F870BD0F
:104EC0000030014018050020DC0400205864024036
:104ED0001B09002010B50448FBF790FC0248183865
:104EE000FBF78CFC10BD00005864024040EA01034F
:104EF0009B0703D009E008C9121F08C0042AFAD290
:104F000003E011F8013B00F8013B521EF9D2704753
:104F1000D2B201E000F8012B491EFBD270470022FB
:104F2000F6E710B513460A4604461946FFF7F0FFA8
:104F3000204610BD2DE9F05F0546002092469B46B5
:104F400088460646814640241BE02846414647469F
:104F5000224600F042F853465A46C01A914110D3F7
:104F600011461846224600F029F82D1A67EB010871
:104F70004F4622460120002100F020F817EB0009DF
:104F80004E41201EA4F10104DFDC484631462A468A
:104F90004346BDE8F09F0000064C074D06E0E06880
:104FA00040F0010394E8070098471034AC42F6D370
:104FB000FBF7EEF8B0540008D0540008202A04DBB8
:104FC000203A00FA02F1002070479140C2F120031C
:104FD00020FA03F3194390407047202A04DB203A5B
:104FE00021FA02F00021704721FA02F3D040C2F109
:104FF0002002914008431946704700000FB4054B4A
:1050000010B503A9044A029800F018F810BC5DF826
:1050100014FB0000590600081C00002002E008C82C
:10502000121F08C1002AFAD170477047002001E022
:1050300001C1121F002AFBD1704700002DE9FF4F6C
:105040008DB00F460546002606E025280BD0DDE989
:105050000F1290476D1C761C28780028F5D111B0EE
:105060003046BDE8F08F0024A246A1460122EC495B
:1050700000E0044315F8013F203B02FA03F0084228
:10508000F7D128782A2810D06FF02F022878A0F1C5
:105090003001092914D80AEB8A0102EB410144F0DE
:1050A000020400EB010A6D1CF0E701CF5FEA000A81
:1050B00003D544F40054CAF1000A44F002046D1C04
:1050C00028782E2817D115F8010F44F004042A2857
:1050D0000ED06FF02F022878A0F1300109290AD8EC
:1050E00009EB890102EB410100EB01096D1CF2E7BC
:1050F00057F8049B6D1C28786C280FD006DC4C28D0
:1051000017D068280DD06A2814D104E0742810D074
:105110007A280FD10DE044F400140AE044F480141E
:1051200001E044F440146978814202D104F580140E
:105130006D1C6D1C2A786E2A1FD00CDC632A31D0BE
:1051400004DC002A8BD0582A11D1A3E0642A68D04D
:10515000692A0CD165E0732A2ED004DC6F2A73D043
:10516000702A04D19BE0752A6FD0782A6ED0104641
:10517000DDE90F129047761C50E1C4F3025002287B
:1051800006D0032809D0042801CF09D0066045E1E4
:1051900001CFF117C0E9006140E101CF06803DE198
:1051A00006703BE117F8040B8DF8000000208DF825
:1051B0000100EB46012003E057F804BB4FF0FF303D
:1051C00061074FF0000102D40DE008F101018846AB
:1051D00049450FDA8045F8DB1BF808100029F4D1A7
:1051E00008E008F1010188468142FADB1BF808104B
:1051F0000029F6D1DDE90F23AAEB080081462146FC
:1052000000F036F9304400EB080604E0DDE90F1247
:105210001BF8010B9047B8F10108F7D22146484628
:10522000F7E00A21C4F302534FF0000B0891022B60
:1052300004D001CFC117032B09D00AE0FF1D27F0CE
:105240000707F7E8020108E032E01FE020E000B2C3
:10525000C117042B01D140B2C117031E71F1000325
:1052600007DA4FF0000CD0EB0C006CEB01012D23A2
:1052700002E0230504D52B238DF82430012303E01D
:10528000E30701D02023F7E7984658E00A2110E011
:1052900010210EE010204FF0000B08900CE01021C0
:1052A0004FF0000B44F004044FF00809089103E0AC
:1052B00008214FF0000B0891C4F30253022B04D0D5
:1052C00001CF0021032B06D006E0FF1D27F00707C2
:1052D000F7E8020103E080B2042B00D1C0B24FF026
:1052E000000823072BD5702A07D0DDF820C08CF0EA
:1052F000100C5CEA0B0C05D00EE040238DF8243036
:10530000012308E050EA010306D030238DF8243051
:105310008DF8252002239846DDF820C08CF0080C7B
:105320005CEA0B0C0BD150EA010301D1630706D5EF
:1053300030238DF824304FF00108A9F10109582AD3
:1053400004D038A20B9208AA0A920BE03AA2F9E71D
:105350005B46089AFFF7EEFD0B9B9B5C0A9A521E78
:105360000A92137050EA0102F2D10A98ADEB0000E4
:1053700000F1200B600702D524F4803401E04FF0E7
:105380000109D94502DDA9EB0B0000E0002000EB8C
:105390000B0141440890AAEB010AE00306D4DDE9C1
:1053A0000F232146504600F063F806444FF00009F1
:1053B00008E009A911F80900DDE90F12904709F189
:1053C0000109761CC145F4DBE0030CD5DDE90F23B0
:1053D0002146504600F04CF8064404E0DDE90F1287
:1053E00030209047761C0899481E08900029F5DC6B
:1053F00008E00A980A990078491C0A91DDE90F1221
:105400009047761CBBF10001ABF1010BF1DC2146AA
:105410005046DDE90F2300F019F806446D1C1BE629
:10542000092801003031323334353637383961627A
:10543000636465660000000030313233343536373E
:105440003839414243444546000000002DE9F0410F
:10545000044600251E461746880404D405E0394654
:105460002020B0476D1C641EF9D52846BDE8F081A8
:105470002DE9F041044600251E469046C80301D59B
:10548000302700E02027880404D505E0414638464F
:10549000B0476D1C641EF9D52846BDE8F0810000B8
:1054A00002020202020202020202020202020202DC
:1054B000D0540008000000208C0000001C500008A0
:1054C0005C5500088C000020941400002C5000084B
:1054D000000000000008DC00ABCDC0A8017BFFFF8E
:1054E000FF00C0A801010808080801000000000032
:1054F0000000000000000000010203040102030498
:1055000006070809007A030A0000000000000000F6
:10551000010203040607080901025735353030003F
:10552000152B0008172B0008192B00081B2B00084F
:105530001D2B0008232B000800000000000000C005
:10554000000000000000000000000000000000005B
:0C5550000000000000000000000000004F
:040000050800018965
:00000001FF
